:100000000C9479040C9496040C9496040C9491131B
:100010000C94E3130C9496040C9496040C94E71837
:100020000C9496040C94D3120C9496040C9496049D
:100030000C94ED140C9496040C94A9140C9496044E
:100040000C9496040C9496040C9403110C9496044E
:100050000C9496040C9496040C9496040C949604B8
:100060000C9496040C9496040C9496040C949604A8
:100070000C9496040C9496040C94BD120C94960463
:100080000C9496040C9496040C9426050C949604F7
:100090000C94D40F0C9496040C9496040C9496042F
:1000A0000C94AA1C0C9496040C949604080000006E
:1000B000BE922449123EABAAAA2ABECDCCCC4C3E5D
:1000C00000000080BEABAAAAAA3E00000000BF004C
:1000D0000000803F0000000000084178D3BB438748
:1000E000D1133D190E3CC3BD4282AD2B3E68EC825C
:1000F00076BED98FE1A93E4C80EFFFBE01C4FF7FE1
:100100003F0000000000526561643A0925640D0A51
:100110004F66667365743A0925640D0A000D0A433B
:100120006861726765722072656D6F7665640D0A2D
:100130000057616974696E6720666F722063686139
:100140007267657220746F20626520646973636FE3
:100150006E6E6563746564005374617274696E6772
:100160002073746174653A092575206D5620282521
:1001700075206D56292C20252E316620432C2025F4
:100180006C75206D430D0A004368617267657220CB
:10019000636F6E6E65637465640D0A004661737407
:1001A0002063686172676520656E646564206279AA
:1001B0002074696D65206C696D69740D0A0043686F
:1001C00061726765722072656D6F7665640D0A00F5
:1001D0004661756C7420647572696E672066617320
:1001E000742063686172676520282575206D562C20
:1001F00020252E31662043290D0A004661737420A4
:1002000063686172676520706175736564206475E9
:100210006520746F206F7665722074656D706572ED
:1002200061747572650D0A004661737420636861BC
:1002300072676520656E6465642064756520746FFF
:100240002064542F64740D0A00466173742063683F
:100250006172676520656E646564206475652074ED
:100260006F2064656C746120560D0A004653542C4F
:1002700020256C752C20256C752C2025752C2025AF
:100280002E31662C20256C752C20252E31662525D7
:100290002C20256C750D0A005374617274696E67A9
:1002A0002066617374206368617267652E2E2E0D5F
:1002B0000A005072652D63686172676520656E641F
:1002C00065640D0A00436861726765722072656D2E
:1002D0006F7665640D0A004661756C7420647572F2
:1002E000696E67207072652D63686172676520288A
:1002F000252E316620432C20256C75207365637391
:10030000290D0A004D6178696D756D207065722D3B
:1003100063656C6C20766F6C7461676520726561D3
:10032000636865640D0A004D696E696D756D2066C0
:100330006173742063686172676520766F6C7461A5
:10034000676520262074656D7065726174757265CD
:1003500020726561636865640D0A005052452C2067
:10036000256C752C20256C752C20252E31662C20B3
:10037000256C752C20252E316625252C20256C75A5
:100380000D0A005374617274696E67207072652D76
:100390006368617267652E2E2E0D0A0056657273B2
:1003A000696F6E206E756D62657220646973706C22
:1003B00061790D0A00556E6B6E6F776E0D0A004EF7
:1003C0006F726D616C0D0A004E6F726D616C0D0A7B
:1003D000004C6F770D0A00456D7074790D0A00436B
:1003E0007269746963616C0D0A00426174746572AC
:1003F000793A20000D0A00504F5200455854200011
:10040000424F52200057445220005044492000538C
:100410005220000D0A4D696B726F6E2033205369B4
:100420006D706C6520436F6E74726F6C20556E69D1
:10043000742056310D0A52657365743A2000536872
:10044000757474696E6720646F776E2E2E2E0D0A98
:10045000005475726E696E67206F66662E0D0A0015
:100460002530366C7520426174746572792072652E
:100470006163686564206375746F666620766F6C6F
:10048000746167652C207368757474696E67206485
:100490006F776E0D0A002530366C752000253036DA
:1004A0006C75204368617267653A20256C75206D14
:1004B000432028252E31662525292C202575206DE1
:1004C000560D0A00417564696F207065616B3A20B2
:1004D00025750D0A002530366C7520002530366CE8
:1004E0007520002530366C7520005075726550619E
:1004F0007468204C454420666C617368696E67209F
:100500006E6F742064657465637465640D0A0054CD
:100510006F67676C65206D6F6465206163746976D1
:10052000617465642E0D0A002530366C7520005507
:100530006E6B6E6F776E2062617474657279207372
:10054000746174652E0D0A004261747465727920BD
:10055000746F6F206C6F7720746F20737461727486
:100560002028256C75206D432C202575206D562C78
:10057000202575290D0A00436F756C6F6D6220632D
:100580006F756E743A20256C75206D432028252EDA
:1005900031662525290D0A00426174746572793A25
:1005A000202575206D5620282575206D56290D0AA9
:1005B000005475726E696E67206F6E2E0D0A0055BD
:1005C0006E6B6E6F776E2073746174650D0A0045F3
:1005D00072726F720D0A0050616972696E670D0A5E
:1005E00000416C6F6E650D0A004163746976650D9C
:1005F0000A0050757265506174683A20005472792F
:100600003A20696E666F2C2063616C622C206261F7
:1006100074762C2074656D702C20726573212C20EB
:100620006C6564732C2074696D650D0A004F6E2033
:1006300074696D653A09256C7520736563730D0ADD
:1006400000426174746572792074656D703A20257A
:100650002E316620430D0A004465746F6E61746923
:100660006E672062617474657279207061636B2EAD
:100670002E2E0D0A0046696E69736865640D0A00C6
:10068000477265656E0D0A005265640D0A0042618D
:1006900074746572793A202575206D562028257569
:1006A000206D56290D0A004261742063616C3A097D
:1006B00025640D0A000D0A00504F52004558542081
:1006C00000424F522000574452200050444920001D
:1006D000535220004C6173742072657365743A093B
:1006E000307825303258200046757365733A090911
:1006F0002D2D25303258253032582D2D25303258A9
:100700002530325825303258202F20253032580DD0
:100710000A004D43552049443A09092530325825ED
:10072000303258253032582D25630D0A00253032DD
:10073000582530325825303258253032582530323D
:1007400058253032582D253032582D253032582535
:1007500030325825303258253032580D0A00536552
:100760007269616C206E6F3A09004657204352430C
:100770003A09092530386C58202F202530386C581C
:100780000D0A004657206275696C743A095365700A
:1007900020203320323031342031333A34383A3467
:1007A000320D0A004D696B726F6E20332053696DF4
:1007B000706C6520436F6E74726F6C20556E697437
:1007C0002056310D0A005363616E20636F6D706CAB
:1007D0006574652E0D0A0044657669636520666F51
:1007E000756E64206174203078253032580D0A000F
:1007F0006E616E00696E660000407A10F35A00A0C8
:10080000724E18090010A5D4E80000E876481700D9
:1008100000E40B54020000CA9A3B000000E1F50519
:10082000000080969800000040420F000000A08663
:1008300001000000102700000000E8030000000095
:100840006400000000000A00000000000100000039
:1008500000002C76D888DC674F0823DFC1DFAE5953
:10086000E1B1B796E5E3E453C63AE651997696E8E6
:10087000E6C28426EB898C9B62ED407C6FFCEFBC6A
:100880009C9F40F2BAA56FA5F490055A2AF75C9395
:100890006B6CF9676DC11BFCE0E40D47FEF520E6CB
:1008A000B500D0ED902E0300943577050080841EAE
:1008B000080000204E0A000000C80C333333330F09
:1008C000986E12831141EF8D2114893BE65516CFA6
:1008D000FEE6DB18D1844B381BF77C1D901DA4BBB2
:1008E000E424203284725E228100C9F124ECA1E567
:1008F0003D2711241FBECFEFCDBFDFE2DEBF10E2E8
:10090000A0E0B0E2E6E5FBE402C005900D92A23063
:10091000B107D9F721E2A2E0B0E201C01D92A03BED
:10092000B207E1F70E94AC0E0C94A9250C940000CC
:100930008093C00199278093C1018093C20147E051
:1009400007D0CB01089542E0992714C041E012C0BE
:100950004093CA0128ED31E0209334003093CB015D
:100960006091C4017091C5018091C60199271092D0
:10097000CA010895FC014093CA0184911092CA01F2
:1009800008952091CF0127FDFCCF22272093CA0193
:10099000089548E302C049E300C04093CA0128ED2E
:1009A00031E0209334003093CB016091C401709109
:1009B000C5018091C60190E09093CA0199270895DE
:1009C000E0E7F0E081818D7F8183E0E0F2E082E08A
:1009D00080831082138280E58183128284E0848385
:1009E00017A28FEF83A381E082A38081816080833F
:1009F0008FE19EE40197F1F700C00000089580E2C6
:100A00000E94A30480930C0281E20E94A3048093BD
:100A10000D0262E070E082E090E20E94211380917A
:100A2000022090910320019621F41092022010924E
:100A300003201092220282E08093000210920002B2
:100A40008091710082608093710008951F920F92CF
:100A50000FB60F9211248F938FEF80931D208F91EB
:100A60000F900FBE0F901F901895CF92DF92EF92CC
:100A7000FF920F931F93CF93DF9300D000D0CDB799
:100A8000DEB782E08093200285E28093210287EE28
:100A900093E00197F1F700C0000010921D208FEF46
:100AA00080932302809120028068809320028091AD
:100AB0001D208F3F29F0889580911D208F3FD9F709
:100AC000809124029091250240E280E090E0DC01D8
:100AD0005FEFEFECF7E03197F1F700C00000109204
:100AE0001D20509323022091200220682093200291
:100AF00020911D202F3F29F0889520911D202F3F08
:100B0000D9F70091240210912502222717FD209584
:100B1000322F800F911FA21FB31F4150D1F6B7FD96
:100B20004AC035E0B595A795979587953A95D1F741
:100B3000BC01882777FD8095982F0E949A1E20E09F
:100B400030E04AEF5EE30E94931F26E636E64EE170
:100B500051E40E94931F9B01AC01609102207091AF
:100B60000320882777FD8095982F29833A834B832C
:100B70005C830E949A1E29813A814B815C810E948C
:100B80009C1D6B017C0120E030E0A9010E94001E49
:100B900087FD15C0C701B6010E946C1ECB012496CB
:100BA000CDBFDEBFDF91CF911F910F91FF90EF90EE
:100BB000DF90CF9008954F96A11DB11DB2CF80E078
:100BC00090E0EDCFCF92DF92EF92FF920F931F93C1
:100BD00082E0809320028FE28093210287EE93E0EF
:100BE0000197F1F700C0000010921D208FEF809355
:100BF00023028091200280688093200280911D2032
:100C00008F3F29F0889580911D208F3FD9F78091E3
:100C100024029091250240E280E090E0DC015FEF49
:100C2000EFECF7E03197F1F700C0000010921D20C3
:100C300050932302209120022068209320022091CB
:100C40001D202F3F29F0889520911D202F3FD9F797
:100C50000091240210912502222717FD2095322FA2
:100C6000800F911FA21FB31F4150D1F6B7FD68C07E
:100C700045E0B595A795979587954A95D1F7BC011D
:100C8000882777FD8095982F0E949A1E20E030E0FB
:100C90004AEF5EE30E94931F6B017C0120E030E08D
:100CA00040EA50E40E94001E87FD3FC0A701960164
:100CB00060E070EC88E295E40E94041E20E030E0E1
:100CC00040E85FE30E949B1D9B01AC0160E078EC73
:100CD0008FE298E40E94041E20E030E44CE156E4E8
:100CE0000E94041E0E94531F20E030E948E755E4AB
:100CF0000E94041E2FE03FEC4BE55BE30E949C1D2D
:100D00009B01AC0160E070E080E89FE30E94041E5C
:100D100023E333E948E853E40E949B1D1F910F91A0
:100D2000FF90EF90DF90CF90089560E070E088EC46
:100D300092EC1F910F91FF90EF90DF90CF9008956C
:100D40004F96A11DB11D94CFCF92DF92EF92FF92EB
:100D50000F931F93109202201092032082E0809341
:100D6000200285E28093210287EE93E00197F1F75C
:100D700000C0000010921D208FEF8093230280910D
:100D8000200280688093200280911D208F3F29F0EF
:100D9000889580911D208F3FD9F7809124029091F2
:100DA000250240E280E090E0DC015FEFEFECF7E04D
:100DB0003197F1F700C0000010921D2050932302DC
:100DC0002091200220682093200220911D202F3F97
:100DD00029F0889520911D202F3FD9F700912402FA
:100DE00010912502222717FD2095322F800F911F89
:100DF000A21FB31F4150D1F6B7FD5EC055E0B595B7
:100E0000A795979587955A95D1F7BC01882777FDC7
:100E10008095982F0E949A1E20E030E04AEF5EE312
:100E20000E94931F26E636E64EE151E40E94931F8E
:100E30006B017C016091022070910320882777FD6F
:100E40008095982F0E949A1E9B01AC01C701B601A4
:100E50000E949C1D6B017C0120E030E0A9010E94F2
:100E6000001E87FD2DC0C701B6010E946C1EAB019C
:100E700020E13EE0261B370B209302203093032015
:100E80003F932F935F934F9386E091E09F938F93CF
:100E90000E9489190F900F900F900F900F900F9054
:100EA00062E070E082E090E21F910F91FF90EF907E
:100EB000DF90CF900C94F3124F96A11DB11D9ECFE1
:100EC00020E13EE040E050E0D7CF2F923F924F929A
:100ED0005F926F927F928F929F92AF92BF92CF92CA
:100EE000DF92EF92FF920F931F93CF93DF9300D087
:100EF00000D0CDB7DEB783E893E00E947A1982E094
:100F00008093E60781E08093E60795E0A8958091BD
:100F10001720811105C08895809117208823D9F367
:100F20009150A1F70E94D4180E94E205162F072FB6
:100F3000F82EE92E0E943505812C912C54014EE1AA
:100F4000442E512C612C712CFB82EC820E94C9181A
:100F50006B017C01809116208823E9F01092162005
:100F600080911F2090912020A0912120B0912220DB
:100F7000803829E29207A207B10508F069C0805ABB
:100F8000964FAF4FBF4F80931F2090932020A09388
:100F90002120B0932220C701B601A30192010E9433
:100FA000A423672B682B692B31F4C114D104E1040D
:100FB000F10409F05AC020E030E040E252E4D801E8
:100FC000FB81EC816B2F702F8F2F9E2F0E944A1F69
:100FD00018160CF4BFC00E94C91861317E4081050B
:100FE000910508F0B7C08091080682FDE4C00E9418
:100FF000E71080FF2AC0809104208F5F8093042037
:10100000833010F0A0C08895809117208823D9F3F1
:1010100010921720A8950E94E205162F072F8B83A8
:101020009C830E9435059C01ABEABAEA0E94C62364
:1010300096958795CF20CE20CD20C09409F486CFF9
:10104000880E991EA11CB11C81CF10920420DCCF08
:1010500080EE92E3A9E2B0E080931F2090932020DD
:10106000A0932120B093222096CFC501B401A30103
:1010700092010E94A42349015A0190911F20998353
:10108000A0912020AA833090212020902220FF923E
:10109000EF92DF92CF9269817A81832D922D0E9407
:1010A000981E27E338E54BE158E30E94931F9F9376
:1010B0008F937F936F932F923F92BA81BF93E98171
:1010C000EF93FC81FF932B812F930F931F93BF927C
:1010D000AF929F928F92D501C401880F991FAA1FCA
:1010E000BB1F880D991DAA1DBB1DBF93AF939F9376
:1010F0008F93ABE5B3E0BF93AF930E948919CDBF47
:10110000DEBF99EE891693E09906A104B104B8F008
:1011100020E030E0A901D801FB81EC816B2F702F1A
:101120008F2F9E2F0E944A1F18160CF45AC0ADED47
:101130008A16A5E09A06A104B10408F048C0812CE3
:10114000912C540138CF8CE993E00E947A190E94C7
:1011500063105ACFFB80EC8082E08093E50781E04A
:101160008093E6070E94C9189F938F937F936F9394
:10117000EF92FF920F931F9387ED92E09F938F93CF
:101180000E948919CDBFDEBF80E02496CDBFDEBFAF
:10119000DF91CF911F910F91FF90EF90DF90CF9053
:1011A000BF90AF909F908F907F906F905F904F9087
:1011B0003F902F90089582E08093E50781E080932F
:1011C000E60785EC92E00E947A1981E0DECF84E0A8
:1011D00093E00E947A1982EB92E00E947A1981E0F2
:1011E000D4CF87E293E00E947A19F5CF2F923F92F5
:1011F0004F925F926F927F928F929F92AF92BF9227
:10120000CF92DF92EF92FF920F931F93CF93DF93D2
:10121000CDB7DEB7C85FD109CDBFDEBF88E992E0A8
:101220000E947A1982E08093E60781E08093E507C7
:1012300095E0A89580911720811105C0889580912F
:1012400017208823D9F39150A1F70E94D4189E014A
:101250002F5F3F4FCF50DF4F28833983C15FD0408E
:1012600080EFD9011D928A95E9F70E94E205B62E1A
:10127000A72E982E892E0E9435059C01ABEABAEA6A
:101280000E94C6231C0136942794C850DF4F188251
:10129000C85FD040CD50DF4F1882C35FD040CC50E4
:1012A000DF4F18821982C45FD040C12CD12C760147
:1012B0000E94C9182B013C016C32F1E07F078105C7
:1012C000910510F010921E20809116208823F1F0D5
:1012D0001092162080911F2090912020A091212013
:1012E000B0912220883F2CEF920728E2A207B10597
:1012F00008F012C288519A4CAF4FBF4F80931F2005
:1013000090932020A0932120B093222091E42916CD
:1013100096E0390608F012C2C301B2012EE130E0B6
:1013200040E050E00E94A423672B682B692B09F052
:1013300047C1411451046104710409F412C2C70188
:10134000B6012EE130E040E050E00E94A4236901A4
:101350007A01CC50DF4FE881F981C45FD040CF01E2
:10136000A0E0B0E082179307A407B50730F4CC5093
:10137000DF4F28833983C45FD040F0911F20CA50CB
:10138000DF4FF883C65FD04020912020C950DF4F47
:101390002883C75FD04000912120109122207F92A6
:1013A0006F925F924F92CA50DF4F6881C65FD04004
:1013B000C950DF4F7881C75FD040C8010E94981E96
:1013C00027E338E54BE158E30E94931F9F938F93E7
:1013D0007F936F931F930F93C950DF4F3881C75F7F
:1013E000D0403F93CA50DF4F8881C65FD0408F9373
:1013F0008F929F92AF92BF92CB50DF4F9881C55F83
:10140000D0409F93CC50DF4FA881C45FD040AF93B2
:10141000FF92EF92DF92CF92D701C601880F991FFA
:10142000AA1FBB1F8C0D9D1DAE1DBF1DBF93AF938B
:101430009F938F93ACE6B2E0BF93AF930E9489195C
:10144000CC50DF4F88819981C45FD0400597A0E0E0
:10145000B0E0CDBFDEBFC816D906EA06FB0608F02D
:10146000A7C0C850DF4F3881C85FD0403F5FC85029
:10147000DF4F3883C85FD04089E5481682E05806C0
:101480006104710408F080C1CD50DF4F9881C35FC3
:10149000D040092F10E0C12CD12C7601000F111F74
:1014A000000F111FE1E0F0E0EC0FFD1FE00FF11F56
:1014B000A5019401852F9A2DA32FB82D80839183A8
:1014C000A283B383CD50DF4F3881C35FD0403F5FED
:1014D000CD50DF4F3883C35FD0403C3328F0CD5030
:1014E000DF4F1882C35FD04020E030E048E452E490
:1014F000D501F4016B2F7A2D8F2F982D0E944A1F52
:1015000018160CF4A5C0E8EE2E16E3E03E0608F42B
:10151000D7C020E030E0A901D501F4016B2F7A2D6E
:101520008F2F982D0E94001E87FDCAC0809108064B
:1015300082FD3CC10E94E71080FF87C0809104209B
:101540008F5F80930420833010F017C188958091BD
:1015500017208823D9F310921720A89530E443165A
:1015600038E353066104710408F02CC10E94E205BF
:10157000B62EA72E982E892E0E9435059C01ABEA27
:10158000BAEA0E94C6231C0136942794B1E04B1A94
:10159000510861087108EEEF4E16EFEF5E066E0619
:1015A0007E0608F085CEC20CD31CE11CF11C80CE57
:1015B000C12CD12C7601C850DF4F1882C85FD040B3
:1015C000B9E54B16B2E05B066104710408F4E2C0B1
:1015D000CD50DF4FF881C35FD0400F2F10E0000FD8
:1015E000111F000F111FE1E0F0E0EC0FFD1FE00FF5
:1015F000F11F20E030E040E85FE36081718182818B
:1016000093810E949C1DD501F4012B2F3A2D4F2F61
:10161000582D0E94001E87FF45CF80EE92E3A9E27D
:10162000B0E080931F2090932020A0932120B093BE
:10163000222082E08093E50781E08093E60788E23C
:1016400092E00E947A1981E050C0109204207FCF6E
:1016500082E08093E50791E09093E6078BEF91E0BD
:101660000E947A19A89580911720811105C088954C
:10167000809117208823D9F3109217200E94E20549
:10168000B62EA72E982E892E20E030E040E252E4BC
:10169000D501F4016B2F7A2F8F2F9E2F0E944A1FA6
:1016A000181604F310921620A2E0A093E607B1E00A
:1016B000B093E507E8EE2E16E3E03E0608F029CFEA
:1016C00082E08093E50781E08093E6078F929F9206
:1016D000AF92BF923F922F9280ED91E09F938F93B4
:1016E0000E948919CDBFDEBF80E0C850DF4FCDBF5B
:1016F000DEBFDF91CF911F910F91FF90EF90DF90B0
:10170000CF90BF90AF909F908F907F906F905F90A1
:101710004F903F902F90089580EE92E3A9E2B0E0C1
:1017200080931F2090932020A0932120B09322200B
:1017300091E4291696E0390608F4EECD80EE92E3A6
:10174000A9E2B0E080931F2090932020A093212055
:10175000B093222082E08093E50781E08093E60742
:10176000C4CFCD50DF4F2881C35FD040022F10E09F
:10177000000F111F000F111F95CE8CE993E00E94FE
:101780007A190E946310E3CE323040F5C12CD12C7F
:1017900076011ECFCD50DF4FE881C35FD0400E2FC2
:1017A00010E0000F111F000F111F7CCE82E080930C
:1017B000E50781E08093E6078EEB91E00E947A19BD
:1017C00081E093CF82E08093E50781E08093E60794
:1017D0008CE991E00E947A1981E087CF80EE92E354
:1017E000A9E2B0E080931F2090932020A0932120B5
:1017F000B093222082E08093E50781E08093E607A2
:1018000089E492E00E947A1981E06FCFEF92FF9213
:101810000F931F93CF93DF930E94971182E08093E1
:10182000E60781E08093E60783E08093E10788E89C
:1018300091E00E947A190E94E2057B018C010E94CE
:101840003505AC019C01ABEABAEA0E94C623EC0163
:10185000D695C795809122208F93809121208F93D8
:10186000809120208F9380911F208F931F930F933F
:10187000FF92EF92DF93CF935F934F9328E531E090
:101880003F932F930E94891960E081E00E943010FD
:101890008DB79EB70E968DBF9EBFC83ED34078F1E0
:1018A00020E030E0A9016E2D7F2D802F912F0E9426
:1018B000001E87FD24C08091080682FF63C060E09F
:1018C00080E00E94301082E08093E50781E0809301
:1018D000E6078091080682FF1BC082E08093E5073F
:1018E00081E08093E60760E080E00E943010DF91A5
:1018F000CF911F910F91FF90EF900C941A120E94BC
:1019000065078111D8CF61E081E00E943010DBCF04
:1019100081E391E00E947A1922E091E0A8958091FC
:101920001720811105C08895809117208823D9F34D
:1019300010921720A89580911720811105C08895D5
:10194000809117208823D9F310921720A89520930F
:10195000E6079093E6073FEF40E782E031504040D2
:101960008040E1F700C000008091080682FD05C0BC
:101970002093E5079093E607D1CF8DE191E00E9497
:101980007A19ABCF0E94F608882309F4BCCF809166
:10199000080695CF0F931F93CF93DF93CDB7DEB794
:1019A0006397CDBFDEBFA89580911F209091202026
:1019B000A0912120B091222020911E2089839A831A
:1019C000AB83BC832D878D839E83AF83B8872E879F
:1019D00089879A87AB87BC872F87E0EDF0E080ECA2
:1019E000808381E28083898183838A8183838B8161
:1019F00083838C8183838D8183838E8183838F8195
:101A0000838388858383898583838A8583838B8584
:101A100083838C8583838D8583838E8583838F8564
:101A2000838381E08183348145818681278190E0B1
:101A3000A0E0B0E0DC0199278827942B832BB22B00
:101A4000888B998BAA8BBB8BF89400EC11E0F80182
:101A500084858D7F84870E94830E83E1FE01319609
:101A6000A0E0B0E101900D928A95E1F780E00E943C
:101A7000880E0E94830EF8018485826084877894A2
:101A80006396CDBFDEBFDF91CF911F910F91089577
:101A90000F931F93109205208091CC018D7F80932E
:101AA000CC018091001090910110A0910210B09192
:101AB0000310409104105091051060910610709130
:101AC000071084179507A607B707B1F08CE99EE1C8
:101AD000A4E0B0E080931F2090932020A0932120C9
:101AE000B093222010921E208091CC0182608093BE
:101AF000CC011F910F910895409108105091091049
:101B000060910A1070910B1084179507A607B7070C
:101B1000E9F620910C1030910D102313D7CF30919E
:101B20000E102313D3CF30EC3093D00031E230933A
:101B3000D000309100103093D300309101103093D9
:101B4000D300309102103093D300309103103093C2
:101B5000D300309104103093D300309105103093AE
:101B6000D300309106103093D3003091071030939A
:101B7000D300309108103093D30030910910309386
:101B8000D30030910A103093D30030910B10309372
:101B9000D3002093D3002093D3002093D30021E0DF
:101BA0002093D1003091D400E091D5004091D6002F
:101BB0002091D70050E060E070E0BA01552744273B
:101BC0005E2B432B722B00910F101091101020915F
:101BD000111030911210041715072607370709F066
:101BE00075CF80931F2090932020A0932120B09345
:101BF000222080910C1080931E2076CF1092052019
:101C000008950E9435059C01ABEABAEA0E94C623FA
:101C1000969587958C3424E0920708F12091052051
:101C20002530E9F030911E20311119C0803B9440DD
:101C3000E8F02330D9F060911F207091202080912E
:101C40002120909122200E94981E20E036ED43E84A
:101C500058E40E94001E87FD0DC084E004C081E0AE
:101C600080931E2085E080930520089583E0809373
:101C70000520089582E0F7CFCF93C82F8AEE93E036
:101C80000E947A19C330B1F168F4C13051F1C23009
:101C9000B1F460E081E00E94301081ED93E0CF91DB
:101CA0000C947A19C430A1F0C53049F461E081E0A8
:101CB0000E9430108FED93E0CF910C947A1961E07F
:101CC00081E00E94301085EB93E0CF910C947A195B
:101CD00060E082E00E94301088EC93E0CF910C9499
:101CE0007A1960E082E00E9430108FEB93E0CF9190
:101CF0000C947A1961E081E00E94301087ED93E046
:101D0000CF910C947A198091CF0187FDFCCF089573
:101D10009091CF0197FDFCCF20E2829FC00111245A
:101D20008093C0019093C1011092C20185E380931A
:101D3000CA01EF93FF930F932F93EBECF1E008EDC3
:101D400021E004BF20832F910F91FF91EF918091AB
:101D5000CF0187FDFCCF0895CF93DF9300D01F9272
:101D6000CDB7DEB785E08093480083E880937000AC
:101D700087E0809371008FE58093730082E1809308
:101D800074000E9452120E94A9180E94480D0E94DD
:101D9000FF048091282085FD29C080E2809366069B
:101DA00080E18093650682E08093650691E09093E0
:101DB000660690E4909366068093050684E193E7B7
:101DC0002FE738E341E0215030404040E1F700C0C8
:101DD000000090936706815099F783E3809365062E
:101DE00080E48093650682E08093060660E080E0F0
:101DF0000E94301060E080E00E94411060E080E0CE
:101E00000E9452100E94481983E194E00E947A19BE
:101E10008091282085FF06C08FE094E00E947A1907
:101E20008091282084FF06C08AE094E00E947A19FD
:101E30008091282083FF06C085E094E00E947A19F3
:101E40008091282082FF06C080E094E00E947A19E9
:101E50008091282081FF06C08BEF93E00E947A19C1
:101E60008091282085FF04C087EF93E00E947A19B3
:101E700084EF93E00E947A190E94641967E082EA75
:101E800090E00E94E912789411E08091080682FFA8
:101E900017C080910C2090910B20892B39F48895E4
:101EA00090910C2080910B20892BC9F380914806DA
:101EB00082FF09C010920C208091080682FDE9CFB4
:101EC0000E94060CE6CF109348000E9497110E94D2
:101ED000D4180E94010E0E943C0E0E94E71081FF60
:101EE0000FC08895CE0101960E94F6108A81853137
:101EF000A0F38B81853188F30E940615EECF88957B
:101F00000E94C9186330710581059105C0F30E94D4
:101F10001A12D0CF10924009E0E6F4E01482E0E714
:101F2000F0E0848182608483808180688083E0E641
:101F3000F6E080E3858383E0858380E4858383E323
:101F400081838089877C808B8189877C818B848950
:101F5000877C848B8589877C858B0895F894809114
:101F60000A2080930620809109208093232080916D
:101F70000820809324208091072080932920789442
:101F80000895F8948091062080930A208091232060
:101F9000809309208091242080930820809129201B
:101FA00080930720789408951F920F920FB60F9296
:101FB00011242F938F939F938FEF80934C099091CF
:101FC0000120911115C080910A2080FF11C080E38B
:101FD0008093650680910A2081FD1FC080910820B2
:101FE0008130B9F422E0209366068093650618C01C
:101FF00080910920813001F180910920823019F10E
:1020000080E380936506992329F38091082081302D
:1020100049F3809108208230E9F083E080936506DF
:1020200081E08927809301209F918F912F910F90BC
:102030000FBE0F901F90189580E28093660680E196
:1020400080936506E0CF80E28093650680E180930F
:102050006606D9CF8093650681E080936606E0CF5F
:10206000F8948093092080910A20611105C08E7F29
:1020700080930A2078940895816080930A20789450
:102080000895F8948093082080910A20611105C07A
:102090008D7F80930A2078940895826080930A202F
:1020A00078940895F8948093072080910A20611114
:1020B00005C08B7F80930A20789408958460809374
:1020C0000A207894089510924009E0E6F4E0148222
:1020D000E0E7F0E08481826084838081806880838F
:1020E000E0E6F6E080E3858383E0858380E4858312
:1020F00083E381838089877C808B8189877C818B46
:102100008489877C848B8589877C858B2FEF89E602
:1021100098E1215080409040E1F700C0000080E449
:1021200086832FEF89E698E1215080409040E1F7C7
:1021300000C0000080E2868380E18583A8952FEFB0
:1021400084E39CE0215080409040E1F700C0000013
:1021500082E0868381E085832FE78AE196E0215043
:1021600080409040E1F700C0000083E085832FEFBE
:1021700089E698E1215080409040E1F700C00000DE
:1021800080E3858380E485832FEF89E698E1215001
:1021900080409040E1F700C00000E0E7F0E084817B
:1021A0008D7F8483E0E4F9E0108211821282138231
:1021B000148281E0868317828FEF848710A211A298
:1021C00088E39FE086A397A387E0808308958091AA
:1021D00008068095881F8827881F9091480692FFDF
:1021E00082609091480693FF84600895F89420914E
:1021F00025203091262040912720FC012083318327
:102200004283789408951F920F920FB60F92112473
:102210000F932F933F938F939F93EF93FF9381E0BF
:1022200080934C088091080687FD7AC08091252014
:10223000882309F464C0809125208F3F29F0809184
:1022400025208F5F809325208091480683FD4FC015
:1022500080910D20846080930D20809127208F3FF6
:1022600029F0809127208F5F809327208091480656
:1022700082FD35C080910D20826080930D20809179
:1022800026208F3F29F0809126208F5F8093262083
:1022900080912620853620F0809127208536A8F56C
:1022A00090910020911104C080910A2082FD04C009
:1022B000809107208330B9F180E48093650681E046
:1022C000892780930020FF91EF919F918F913F91FB
:1022D0002F910F910F900FBE0F901F901895809126
:1022E0000D208D7F80930D2010922620D1CF8091DC
:1022F0000D208B7F80930D2010922720B7CF8091E7
:102300000D20816080930D2096CF2FB7F89431E097
:1023100089E790E0FC0108ED04BF30832FBFC0CFF8
:102320001092252091CF80E480936606C8CF0F934A
:10233000CF93A8958091820080FDFCCF2FB7F894B1
:102340003BE280E890E0FC0108ED04BF30832FBF42
:10235000C1E0C0934800809170008C7F8093700032
:10236000809174008D7F80937400109240091092C8
:102370004109109242091092430910924409C093F6
:102380004609109247098FEF80934C09109260091B
:102390001092610988E39FE0809366099093670932
:1023A00087E0809340090E9448190E94E0040E943F
:1023B000E51C80E38093650683E08093650680E4F6
:1023C0008093650682E08093050680E8809302068C
:1023D00088E08093420680911706877C886180930D
:1023E000170680915306877C8861809353068091FD
:1023F00073008D7F80937300109240081092410803
:10240000109242081092430810924408C093460864
:1024100010924708109260081092610884E39CE0D3
:10242000809366089093670886E080934008CF9178
:102430000F910895A895F8941092092080910A2090
:102440008E7F80930A207894F894109208208091CF
:102450000A208D7F80930A207894F89410920720A8
:1024600080910A208B7F80930A2078948EE394E0F9
:102470000E947A190E948A0F0E94CA0C2FEF80E7EF
:1024800092E0215080409040E1F700C0000089E7D1
:1024900090E031E02FB7F894FC0108ED04BF3083E1
:1024A0002FBFF8CF0F9380917800809328208FEF73
:1024B00080937800809150008066809350008091D6
:1024C000510085FFFCCF2FB7F89435E080E490E011
:1024D000FC0108ED04BF30832FBF2FB7F89430E024
:1024E00081E490E0FC0108ED04BF30832FBF8091B0
:1024F00050008F79809350002FB7F89431E082E438
:1025000090E0FC0108ED04BF30832FBF1092040659
:102510008BEC8093000680911406876080931406EC
:102520008091150687608093150680911206887F3A
:10253000809312064FEF40930C0634E030930A0666
:1025400021E020930906109244069BEF90934006E9
:1025500080915206887F8093520640934C063093B8
:102560004A062093490610926406909360061092E2
:10257000E4071092E0070F9108951F920F920FB693
:102580000F9211248F93EF93FF938FEFE0E0F6E02B
:10259000848780930C20FF91EF918F910F900FBE55
:1025A0000F901F9018951F920F920FB60F92112443
:1025B0008F93EF93FF938FEFE0E4F6E084878093AF
:1025C0000B20FF91EF918F910F900FBE0F901F90F6
:1025D00018950F932FB7F894FC0108ED04BF6083A2
:1025E0002FBF0F910895CF93DF93CDB7DEB7C058BB
:1025F000D109CDBFDEBFAB01FE01319620E8DF017E
:102600001D922A95E9F7BC01CF010E94E924A89503
:10261000F8940E94C1040E9400400E94C104CE01AF
:1026200001960E9408400E94C1040E9404400E943A
:10263000C1047894C058DF4FCDBFDEBFDF91CF918A
:102640000895EF92FF920F931F93CF93DF937B0137
:102650006115710569F08C01C0E0D0E0CE010E94E7
:10266000A604F80181938F012196CE15DF05B1F7FD
:10267000DF91CF911F910F91FF90EF900895F89403
:1026800020910E20FC01208380910F20909110203A
:10269000FB018083918378940895F89410920E2022
:1026A00078940895E0E7F0E08381877F8383A0EE4C
:1026B000B8E014961C9214978CE48C9380818E7FE2
:1026C000808380E4809300010000E0E0F1E084E892
:1026D000808384E0808B63E0618B51E1528B4AE41C
:1026E000448B80E490E0868B978B2AE630E2208F43
:1026F000318F24E220A361A352A344A386A397A30E
:102700008AE290E280A791A780898068808B0895F3
:102710001092000110920E2010920F2010921020A3
:1027200008951F920F920FB60F9211242F933F938B
:102730004F935F936F938F939F93EF93FF9360916A
:102740000E2040910F205091102081E080930301D2
:1027500080911001806280931001EAE6F0E20CC0E3
:10276000262F30E0281739070CF0862F682F329675
:1027700090E2EA3AF90751F08081992787FD909518
:1027800097FFEECF919581959109EACF80930E2026
:102790004115510511F0415051098E3710F048E5AF
:1027A00051E040930F2050931020FF91EF919F91A3
:1027B0008F916F915F914F913F912F910F900FBE2D
:1027C0000F901F9018951F920F920FB60F92112421
:1027D0002F933F934F935F936F938F939F93EF93B9
:1027E000FF9360910E2040910F205091102082E0C5
:1027F0008093030180912001806280932001EAE2AE
:10280000F0E20CC0262F30E0281739070CF0862F95
:10281000682F329690E2EA36F90751F080819927C5
:1028200087FD909597FFEECF919581959109EACF1D
:1028300080930E204115510511F0415051098E37FA
:1028400010F048E551E040930F2050931020FF9185
:10285000EF919F918F916F915F914F913F912F9148
:102860000F900FBE0F901F901895CF93DF931F927C
:10287000CDB7DEB780EBE0E4F6E082830E9452132E
:10288000E0E0F6E08389877C8861838B88E082833F
:1028900080E48283A0E6B6E057968C9157978863D0
:1028A00057968C93579780E811968C9311971696AC
:1028B0008C9381E085832FEF80E792E02150804068
:1028C0009040E1F700C00000E0E6F6E080E8858394
:1028D0008283F89483E08093AA208093AB2078943D
:1028E000E0E0F6E08389887F838BE0E8F1E0108602
:1028F00083E58083E0E7F0E083818E7F8383E0E0FF
:10290000F8E010821182128288EC838382E0848353
:1029100081E08683878380E49FE186A397A387E293
:10292000808380EC898321E0AE014F5F5F4F62E0DE
:1029300080E60E94011D80ED898321E0AE014F5F9A
:102940005F4F61E080E60E94011D0F90DF91CF9103
:1029500008951F920F920FB60F9211242F938F9309
:102960009F9380E180930C0880912808909129081A
:1029700080B991B9843821E09207A0F4863321E030
:10298000920708F182E09091AB20891310C09091DA
:1029900011209F5F9F77909311209B3050F0809380
:1029A000AA2007C083E09091AB20891781F3109291
:1029B00011208093AB209F918F912F910F900FBE8C
:1029C0000F901F901895883E910528F48A3991053B
:1029D00048F380E0E8CF81E0E6CF1F920F920FB678
:1029E0000F9211248F93EF93FF9381E0E0E0F8E0E2
:1029F000848783E08093AA208093AB20FF91EF919E
:102A00008F910F900FBE0F901F9018952F923F92AD
:102A10004F925F926F927F928F929F92AF92BF92EE
:102A2000CF92DF92EF92FF920F931F93CF93DF939A
:102A3000CDB7DEB72D97CDBFDEBFA89581EB95E072
:102A40000E947A190E94D4180E94FE0D0E9435053A
:102A5000182F092F282F392FABEABAEA0E94C62374
:102A6000969587959F938F930F931F9348E955E011
:102A70005F934F930E948919F0901F20E0902020CF
:102A8000D0902120C09022206F2D7E2D8D2D9C2D49
:102A90000E94981E27E338E54BE158E30E94931FFC
:102AA0009F938F937F936F93CF92DF92EF92FF92DA
:102AB00047E755E05F934F930E9489190E94010EEA
:102AC000D82ECDBFDEBF95E0891709F466C18823F3
:102AD00009F446C00E94C9189F938F937F936F9308
:102AE00088E295E09F938F930E9489198D2D0E9413
:102AF0003C0E0E94E7100F900F900F900F900F90D8
:102B00000F9081117DC1E12CA8950E94351405C05C
:102B10008091AA20833009F07AC088950E94C91854
:102B2000663071058105910598F38AEE94E00E9464
:102B30007A1961E081E00E94411009C0A89588954A
:102B40000E94C918613471058105910520F48091B6
:102B5000AA20833099F360E080E00E94411004C015
:102B60008FE295E00E947A1981E594E00E947A193B
:102B700060E080E00E94301060E080E00E94411040
:102B800060E080E00E9452100E94881380917300E0
:102B9000816080937300109200081092800180E899
:102BA0008093060681E080930606AFE1BEE41197AC
:102BB000F1F700C0000080911306877C8093130614
:102BC00088E4809306068093010680EB809341069B
:102BD00002C0A89588950E94E7108111FACF0E9443
:102BE0001A122D96CDBFDEBFDF91CF911F910F91AD
:102BF000FF90EF90DF90CF90BF90AF909F908F901D
:102C00007F906F905F904F903F902F90089500912C
:102C1000AA200E94C9189F938F937F936F9383EE8E
:102C200094E09F938F930E94891982EF95E00E9410
:102C30007A190F900F900F900F900F900F90013016
:102C400009F408C108F471C2023009F465C2033006
:102C500009F4F7C08FEB95E00E947A1960E081E0FB
:102C60000E94411010E03FE0F32E40ECC42E5EE1E4
:102C7000652E6CED462E64E0562E70E4B72E52C0E1
:102C8000898181117CC010E08B818A3120F08A819A
:102C90008A3108F069CF1111E6C0CE8221E0AE0181
:102CA0004A5F5F4F62E080E60E94011D8091AA208A
:102CB000801749F10091AA200E94C9189F938F9311
:102CC0007F936F935F924F920E94891982EF95E0F4
:102CD0000E947A190F900F900F900F900F900F9005
:102CE000013009F4AEC108F4A3C1023009F4B2C145
:102CF000033009F094C18FEC95E00E947A1960E0EE
:102D000081E00E94411080911720882329F0809152
:102D1000AA20882309F467C1809117208111C7C0B8
:102D2000A8958895BE016C5F7F4FCE0109960E94E1
:102D30003F13112309F4B6C08C819D81892B21F0AA
:102D4000BDE1BF1508F444C160E083E00E94521069
:102D5000CE0101960E94F610EE2009F491CF8091E9
:102D60000D2080FF09C0F89480910D208E7F809304
:102D70000D20789481E01827112309F485CF8091E4
:102D80000D208670843009F43EC180910D2086703C
:102D9000823009F448C011E077CF80911E201F9245
:102DA0008F930F931F93809122208F9380912120E6
:102DB0008F93809120208F9380911F208F9388E4A0
:102DC00095E09F938F930E94891961E081E00E94B2
:102DD0003010CDBFDEBFA89588950E94C91863301A
:102DE000710581059105B8F360E080E00E94301024
:102DF0000E94C9186430710581059105C8F3B4CEED
:102E00000E94E71080FD9AC1E12C61E082E00E94FF
:102E100041100E94E7108111FCCF10920D2060E05C
:102E20000E94521071CE8F1508F0B5CFF8948091A2
:102E30000D208D7F80930D207894FA94FA9411E000
:102E400023CF8FEC95E00E947A1960E081E00E9428
:102E5000411008CF89EE95E00E947A1960E082E087
:102E60000E944110FFCE8C819D81892B09F4B5C051
:102E70009DE19F1568F0F886F11001C0C88621E039
:102E8000AE01485F5F4F62E080E60E94011D0ECFF9
:102E90006F8221E0AE01495F5F4F62E080E60E94F1
:102EA000011D04CF60E080E00E94521051CF1092CB
:102EB00017200E94A81980911C208111D4C00E9463
:102EC0004D1380911620882309F45EC010921620BD
:102ED0008091AA2080911F2090912020A0912120F4
:102EE000B0912220813727E19207A105B10508F4AE
:102EF000D2C080579741A109B10980931F209093B8
:102F00002020A0932120B09322200E9435059C010F
:102F100070901F20A090202090902120809022204F
:102F20008C873D870E94C9186A87372E282E9B8779
:102F30002C853D85ABEABAEA0E94C6239695879513
:102F40009F938F93672D7A2D892D982D0E94981E1F
:102F500027E338E54BE158E30E94931F9F938F933B
:102F60007F936F938F929F92AF927F928B858F9377
:102F70002F923F929A859F93ADE9B4E0BF93AF93B0
:102F80000E948919CDBFDEBF0E94010EA82E8D15AB
:102F9000A9F00E94C9189F938F937F936F93A6E91E
:102FA000B4E0BF93AF930E9489198A2D0E943C0E12
:102FB0000F900F900F900F900F900F9085E0A81634
:102FC00009F47CC08091080682FFA3C0DA2CA8CE49
:102FD00061E083E00E945210BBCEAFE3AF1508F072
:102FE0004ACFA8874CCFB0920606B0920106BFEF39
:102FF00020E782E0B15020408040E1F700C00000AF
:10300000B092020689CE2CE32F1508F04DC08091B6
:103010000D208670823009F409CF11E035CE8FEB98
:1030200095E00E947A1960E081E00E9441106BCE29
:1030300081EE95E00E947A1961E082E00E944110E1
:1030400062CE89EE95E00E947A1960E082E00E94EB
:10305000411059CE87ED95E00E947A1961E082E037
:103060000E94411050CE0E94C9189F938F937F9366
:103070006F93A5EDB4E0BF93AF930E948919898542
:103080001F928F93A4ECB4E0BF93AF930E94891971
:10309000CDBFDEBF14CF10921F20109220201092BF
:1030A00021201092222031CFF89480910D208B7F27
:1030B00080930D207894F394F39467CE0E94C918FE
:1030C0009F938F937F936F9380E694E09F938F936A
:1030D0000E94891961E081E00E9430100E94C918A5
:1030E0006B017C010F900F900F900F900F900F903D
:1030F00088950E94C9186C197D098E099F09633053
:10310000710581059105A0F360E080E00E94301018
:103110002BCD10920C2028CD87ED95E00E947A19D6
:1031200061E082E00E9441109DCD81EE95E00E9419
:103130007A1961E082E00E94411094CD8FE095E021
:103140000E947A1960E083E00E945210EE24E3941A
:103150005CCE10921720109216201092000485E089
:10316000809343008091010480FDFCCF8FEF93E0BA
:1031700080930A0490930B0410920804109209049F
:103180008FEF8093030481E0809302048093000416
:103190000895F894609118207091192080911A2058
:1031A00090911B2078940895F894E0E0F4E0108664
:1031B0001186109218201092192010921A20109245
:1031C0001B20109216208FEF8383789408951F920E
:1031D0000F920FB60F9211242F933F934F935F934B
:1031E0006F937F938F939F93AF93BF93CF93EF93FF
:1031F000FF938091182090911920A0911A20B091EE
:103200001B200196A11DB11D8093182090931920B9
:10321000A0931A20B0931B20CFEFC093172060918A
:1032200018207091192080911A2090911B202CE376
:1032300030E040E050E00E94A423672B682B692B0C
:1032400011F4C09316208091122090911320A09128
:103250001420B09115200196A11DB11D809312205C
:1032600090931320A0931420B0931520FF91EF9119
:10327000CF91BF91AF919F918F917F916F915F910E
:103280004F913F912F910F900FBE0F901F90189567
:10329000E0E6F6E084E0828388E08183E0E7F0E026
:1032A00084818F7E8483E0ECF9E01282138283E0D4
:1032B0008483158283E6868386EB878380818CE115
:1032C000838380E1828308958FE99FE00197F1F77E
:1032D00000C00000E0ECF9E01382E0E7F0E0848158
:1032E00080618483E0E6F6E084E08183868388E081
:1032F00085830895FC012491222351F03196809119
:10330000C10985FFFCCF2093C00925912111F7CF7A
:103310000895CF93DF93CDB7DEB7FE013596619167
:103320007191AF018CEA90E20E942F259091AC2020
:10333000992359F0EDEAF0E28091C10985FFFCCFB5
:103340009093C00991919111F7CFDF91CF9108959A
:10335000AF92BF92CF92DF92EF92FF920F931F93A3
:10336000CF93DF93F8948091AC219091AD21A091FF
:10337000AE21B091AF2178948B3621E6920725E6F5
:10338000A20720E7B20709F4BCC270F582362CE62A
:10339000920721E6A20723E6B20709F4AFC208F4B8
:1033A00016C28F3626E692072EE6A20729E6B20756
:1033B00009F473C0833734E6930735E6A3073CE688
:1033C000B30709F43AC280379C46A546B84609F4CB
:1033D00022C2DF91CF911F910F91FF90EF90DF906C
:1033E000CF90BF90AF9008958E3631E6930733E6C5
:1033F000A30733E7B30709F40BC208F4D6C1853637
:103400003DE6930739E6A30734E7B30759F184375C
:1034100021E6920722E6A20726E7B20709F478C25E
:1034200080379D46A546B447A1F60E94E2059F93CA
:103430008F937F936F9381E496E09F938F930E9485
:1034400089190F900F900F900F900F900F90F89494
:103450001092AC211092AD211092AE211092AF21AA
:103460007894B7CFF8948091122090911320A09176
:103470001420B09115207894BF93AF939F938F93AE
:103480008DE296E09F938F930E9489190F900F9081
:103490000F900F900F900F90DACFE4EAF7E094913D
:1034A000992359F0E5EAF7E08091C10985FFFCCF47
:1034B0009093C00995919111F7CFE3E8F7E09491CB
:1034C000992359F0E4E8F7E08091C10985FFFCCF2A
:1034D0009093C00995919111F7CF0E94CB04EB0115
:1034E000182F092F0E94C9040F931F93DF93CF93C6
:1034F0009F938F937F936F938AE697E09F938F9329
:103500000E948919EEE5F7E094912DB73EB7265F4A
:103510003F4F2DBF3EBF992359F0EFE5F7E0809173
:10352000C10985FFFCCF9093C00995919111F7CF08
:1035300088E00E94A3048091CF0187FDFCCF85E144
:103540000E94A304A82E84E10E94A304B82E83E164
:103550000E94A304C82E82E10E94A304D82E80E119
:103560000E94A304E82E8DE00E94A304F82E8CE0B4
:103570000E94A304082F8BE00E94A304182F8AE066
:103580000E94A304D82F89E00E94A304C82F88E0DA
:103590000E94A3041F92AF921F92BF921F92CF92DC
:1035A0001F92DF921F92EF921F92FF921F920F9332
:1035B0001F921F931F92DF931F92CF931F928F939F
:1035C0008DE297E09F938F930E94891980919300D9
:1035D00040919200309191002091900090E0805CA9
:1035E0009F4F9F938F931F924F931F923F931F92D2
:1035F0002F9382E197E09F938F930E948919809186
:10360000CC018D7F8093CC01F090D0018DB79EB717
:1036100082968DBF9EBF86E00E949804082F85E0A9
:103620000E949804182F84E00E949804D82F82E00A
:103630000E949804C82F81E00E9498041F92FF9274
:103640001F920F931F921F931F92DF931F92CF938E
:103650001F928F9388EE96E09F938F930E94891913
:103660008091CC0182608093CC01809128201F92B0
:103670008F9384ED96E09F938F930E9489193091E8
:1036800028208DB79EB742968DBF9EBF232F2072F4
:1036900035FF10C0E0EDF6E09491992359F0E1ED8B
:1036A000F6E08091C10985FFFCCF9093C009959108
:1036B0009111F7CF34FF10C0EBECF6E09491992311
:1036C00059F0ECECF6E08091C10985FFFCCF9093B6
:1036D000C00995919111F7CF33FF10C0E6ECF6E0E9
:1036E0009491992359F0E7ECF6E08091C10985FFA8
:1036F000FCCF9093C00995919111F7CF32FF10C084
:10370000E1ECF6E09491992359F0E2ECF6E0809137
:10371000C10985FFFCCF9093C00995919111F7CF16
:1037200031FF10C0ECEBF6E09491992359F0EDEBEA
:10373000F6E08091C10985FFFCCF9093C009959177
:103740009111F7CF222381F0E8EBF6E094919923D1
:1037500059F0E9EBF6E08091C10985FFFCCF909329
:10376000C00995919111F7CFE5EBF6E0949199237B
:1037700059F0E6EBF6E08091C10985FFFCCF90930C
:10378000C00995919111F7CF809103208F9380917B
:1037900002208F9387EA96E09F938F930E94891966
:1037A0000F900F900F900F9052CE813233E7930716
:1037B00035E6A30732E7B30709F4C5C08536964757
:1037C000A146B34709F005CE0E94CA0C40CE863709
:1037D00024E7920721E6A20722E6B20709F498C07F
:1037E00082369D46AF46B24609F0F3CDE8E5F6E0F5
:1037F0009491992309F42BCEE9E5F6E08091C10973
:1038000085FFFCCF9093C00995919111F7CF1FCE02
:103810000E94431D1CCEEDEFF5E09491992309F42D
:1038200016CEEEEFF5E08091C10985FFFCCF9093B5
:10383000C00995919111F7CF0ACE0E94AE0FA895BD
:10384000E8E8F6E09491992359F0E9E8F6E08091F0
:10385000C10985FFFCCF9093C00995919111F7CFD5
:1038600060E081E00E94301060E081E00E94411041
:1038700060E083E00E9452109FEF2DE339E4915005
:1038800020403040E1F700C00000A895E0E8F6E0F5
:103890009491992359F0E1E8F6E08091C10985FF00
:1038A000FCCF9093C00995919111F7CF60E082E031
:1038B0000E94301060E082E00E94411060E080E0F1
:1038C0000E9452108FEF9DE329E4815090402040E8
:1038D000E1F700C00000E5E7F6E09491992359F084
:1038E000E6E7F6E08091C10985FFFCCF9093C0091F
:1038F00095919111F7CF0E94C10FA9CD0E94A40606
:10390000A6CD80911C2091E0892780931C209FCD1B
:103910000E943505FC019C01ABEABAEA0E94C6236D
:10392000969587959F938F93FF93EF938EE896E0FC
:103930009F938F930E9489190F900F900F900F9073
:103940000F900F9084CD61E089E790E00E94E9122A
:1039500000007DCD1F920F920FB60F9211242F936E
:103960008F939F93AF93BF938091AC219091AD21A2
:10397000A091AE21B091AF21BA2FA92F982F8827FF
:103980008093AC219093AD21A093AE21B093AF2151
:103990002091C0098091AC219091AD21A091AE21E0
:1039A000B091AF21822B8093AC219093AD21A09355
:1039B000AE21B093AF21BF91AF919F918F912F9185
:1039C0000F900FBE0F901F901895E0E4F6E08089ED
:1039D000877C8861808B8189877C8861818BE0E727
:1039E000F0E083818F7B8383E0E8F4E010828DE058
:1039F000828313828EE1858388E0818381E08483E2
:103A00000895909184049370913099F03BE0EFEC2D
:103A1000F7E03197F1F700C00000909184049370B3
:103A2000913039F0315099F780E093E0909383041E
:103A30000895880F809386048091840486FFFCCFCC
:103A4000809184048C7081F7609387048091840452
:103A500086FFFCCF809184048C7031F7222389F09B
:103A6000942FFA018191809387048091840486FFCA
:103A7000FCCF809184048C70B9F68E2F891B82173D
:103A800088F381E0D2CFFF920F931F93CF93DF9300
:103A9000C1E0D0E033E0F32E07ED17E0809184041D
:103AA00083708130E9F09BE0EFECF7E03197F1F7BC
:103AB00000C00000809184048370813089F09150AF
:103AC00099F7F09283042196CF37D10539F786EC28
:103AD00097E0DF91CF911F910F91FF900C947A198D
:103AE000CE01880F991F81608093860480918404A1
:103AF0008C7861F498EC02C0915019F3F2E0FA95D9
:103B0000F1F700C0809184048C78B1F38091840433
:103B10008C70B9F68091840484FDD3CFF092830435
:103B2000DF93CF931F930F930E9489190F900F90EB
:103B30000F900F90C8CF5058BB27AA270ED070C146
:103B400061D130F066D120F031F49F3F11F41EF4C2
:103B500056C10EF4E095E7FB4CC1E92F72D180F31A
:103B6000BA17620773078407950718F071F49EF57A
:103B70008AC10EF4E0950B2EBA2FA02D0B01B901CE
:103B800090010C01CA01A0011124FF27591B99F0D3
:103B9000593F50F4503E68F11A16F040A22F232FDF
:103BA000342F4427585FF3CF469537952795A7952F
:103BB000F0405395C9F77EF41F16BA0B620B730BD6
:103BC000840BBAF09150A1F0FF0FBB1F661F771F47
:103BD000881FC2F70EC0BA0F621F731F841F48F4FC
:103BE000879577956795B795F7959E3F08F0B3CF82
:103BF0009395880F08F09927EE0F9795879508956C
:103C0000D4D008F481E008950CD00AC102D140F06C
:103C1000F9D030F021F45F3F19F0EBC0511134C1FD
:103C2000EEC00FD198F39923C9F35523B1F3951B37
:103C3000550BBB27AA2762177307840738F09F5FCD
:103C40005F4F220F331F441FAA1FA9F333D00E2E3C
:103C50003AF0E0E830D091505040E695001CCAF7A9
:103C600029D0FE2F27D0660F771F881FBB1F26176E
:103C700037074807AB07B0E809F0BB0B802DBF0141
:103C8000FF2793585F4F2AF09E3F510568F0B1C05F
:103C9000FBC05F3FECF3983EDCF386957795679524
:103CA000B795F7959F5FC9F7880F911D96958795F2
:103CB00097F90895E1E0660F771F881FBB1F621711
:103CC00073078407BA0720F0621B730B840BBA0BCF
:103CD000EE1F88F7E0950895BCD088F09F5790F0CC
:103CE000B92F9927B751A0F0D1F0660F771F881F21
:103CF000991F1AF0BA95C9F712C0B13081F0C3D03C
:103D0000B1E00895C0C0672F782F8827B85F39F0D9
:103D1000B93FCCF3869577956795B395D9F73EF47F
:103D200090958095709561957F4F8F4F9F4F089527
:103D3000E89409C097FB3EF4909580957095619545
:103D40007F4F8F4F9F4F9923A9F0F92F96E9BB27FB
:103D50009395F695879577956795B795F111F8CF77
:103D6000FAF4BB0F11F460FF1BC06F5F7F4F8F4FE2
:103D70009F4F16C0882311F096E911C0772321F0D8
:103D80009EE8872F762F05C0662371F096E8862F70
:103D900070E060E02AF09A95660F771F881FDAF7C7
:103DA000880F9695879597F90895990F0008550FF4
:103DB000AA0BE0E8FEEF16161706E807F907C0F0B1
:103DC00012161306E407F50798F0621B730B840BB9
:103DD000950B39F40A2661F0232B242B252B21F493
:103DE00008950A2609F4A140A6958FEF811D811D33
:103DF000089597F99F6780E870E060E008959FEF6D
:103E000080EC089500240A94161617061806090671
:103E1000089500240A941216130614060506089540
:103E2000092E0394000C11F4882352F0BB0F40F4C8
:103E3000BF2B11F460FF04C06F5F7F4F8F4F9F4F08
:103E4000089557FD9058440F551F59F05F3F71F08A
:103E50004795880F97FB991F61F09F3F79F08795F1
:103E60000895121613061406551FF2CF4695F1DF7A
:103E700008C0161617061806991FF1CF869571050A
:103E8000610508940895E894BB2766277727CB013E
:103E900097F908958ADF08F48FEF08950EF0A6C011
:103EA000AECF6894A6CFD5DFC8F39923D1F3C6F37C
:103EB000DF93CF931F930F93FF92C92FDD278823A2
:103EC0002AF02197660F771F881FDAF720E030E08D
:103ED00040E85FEB9FE3883920F0803E30F0219688
:103EE0008F772ADEECEAF0E003C026DEE9EDF0E0B1
:103EF0008BD08B01BE01EC01FB2E6F5771097595BC
:103F0000771F880B990B16DF28E132E741E35FE367
:103F100016D0AF2D9801AE01FF900F911F91CF9158
:103F2000DF911BDE7DCF0BD07BCF6CDF28F071DF04
:103F300018F0952309F05DCF62CF1124A5CF81DF62
:103F4000A0F3959FD1F3950F50E0551F629FF001AC
:103F5000729FBB27F00DB11D639FAA27F00DB11D05
:103F6000AA1F649F6627B00DA11D661F829F22278E
:103F7000B00DA11D621F739FB00DA11D621F839F15
:103F8000A00D611D221F749F3327A00D611D231FEB
:103F9000849F600D211D822F762F6A2F11249F5739
:103FA00050408AF0E1F088234AF0EE0FFF1FBB1F5C
:103FB000661F771F881F91505040A9F79E3F5105FB
:103FC00070F017CF61CF5F3FECF3983EDCF386953E
:103FD00077956795B795F795E7959F5FC1F7FE2BA6
:103FE000880F911D9695879597F908959F3F31F019
:103FF000915020F4879577956795B795880F911D17
:104000009695879597F90895DF93CF931F930F9314
:10401000FF92EF92DF927B018C01689405C0DA2E4B
:10402000EF018DDFFE01E894A59125913591459131
:104030005591AEF3EF0191DDFE019701A801DA94ED
:1040400079F7DF90EF90FF900F911F91CF91DF9163
:104050000895A3E1B0E0EFE2F0E20C94D5237C01F7
:104060001B016A01FC0116821782838181FF66C3EE
:10407000BE016F5F7F4F4B01F7019381F10193FD0B
:10408000859193FF81911F01882309F453C38532E1
:1040900039F493FD859193FF81911F01853239F4A5
:1040A000B70190E00E94FD2456016501E5CF10E0C4
:1040B000512C20E02032A0F48B3269F030F48032B1
:1040C00059F0833269F420612CC08D3239F080338D
:1040D00039F4216026C02260246023C0286021C0FA
:1040E00027FD27C030ED380F3A3078F426FF06C0A0
:1040F000FAE01F9F300D1124132F13C06AE0569E63
:10410000300D1124532E20620CC08E3221F426FD76
:1041100011C3206406C08C3611F4206802C08836B2
:1041200041F4F10193FD859193FF81911F0181116C
:10413000C1CF9BEB980F933018F42061805E06C0CE
:104140009BE9980F933008F0AAC12F7E26FF16E056
:104150002F73722E853621F4F22FF0647F2E08C063
:10416000863621F4622F6068762E02C0111111503C
:1041700077FE07C01C3348F444244394410E27E0E3
:104180000BC0183030F4212F06C027E04CE3442E3A
:1041900003C027E017E0412C560174E0A70EB11CC4
:1041A000F6016081718182819381042DA4010E94B6
:1041B00006246C01098100FF02C003FF06C071FCE8
:1041C00007C072FC08C0612C08C03DE2632E05C028
:1041D0002BE2622E02C090E2692E802F8C7099F142
:1041E000662011F084E001C083E0851510F0512CA9
:1041F0000BC0581A73FC08C0B70180E290E00E941F
:10420000FD245A94C9F7F3CF662029F0B701862D13
:1042100090E00E94FD2403FD03C004EF17E002C0FC
:1042200000EF17E0F72DF0717F2EF80184918823BD
:1042300009F476C271108052B70190E00E94FD240B
:104240000F5F1F4FF2CF77FE0FC04C0C04FF04C06E
:104250008A81813309F44A94141474F5F8E0F41552
:1042600078F588E0482E2CC076FC2AC0812F90E09B
:104270008C159D059CF06CEFC6166FEFD60674F09A
:10428000772D7068772E0AC0E2E0F0E0EC0FFD1F9A
:10429000E10FF11D8081803319F411501111F4CF19
:1042A00077FE0EC044244394410E812F90E0C8163F
:1042B000D9062CF41C1904C04424439401C010E016
:1042C00077FE07C01C141D043CF496012F5F3F4F7E
:1042D00005C025E030E002C021E030E0662011F0AA
:1042E0002F5F3F4F112331F0412F50E04F5F5F4F61
:1042F000240F351F452D50E02417350714F4521AAA
:1043000001C0512C872D897049F4552039F0B7012F
:1043100080E290E00E94FD245A94F7CF662029F0B5
:10432000B701862D90E00E94FD2473FC09C0552042
:1043300039F0B70180E390E00E94FD245A94F7CF52
:1043400077FE5FC09C2D8D2DD7FE02C090E080E0EF
:10435000692E782E40E050E0C601841991098C87BF
:104360009D87960126193709280D391D812F90E068
:10437000EE27FF27E81BF90BEE87FF87FFEF6F168D
:104380007F0669F4B7018EE290E02B8B3A8B488B65
:10439000598B0E94FD24598948893A892B89C61472
:1043A000D70454F06C857D85661577052CF4F901EA
:1043B000E40FF51F818101C080E371E0671A710885
:1043C0004F5F5F4FEE85FF856E167F066CF0B7017D
:1043D00090E02B8B3A8B488B598B0E94FD242B89C4
:1043E0003A8948895989CACF6C147D0439F49A8175
:1043F000963318F4953311F404FF81E3B70190E08C
:104400004BC08A81813309F00F7EB70190E00E9492
:10441000FD24111105C074FE18C085E490E017C09A
:10442000B7018EE290E00E94FD2482E0662463944E
:10443000680EF401E80FF11D8081B70190E00E9441
:10444000FD24115041F3862DF1CF85E690E0B701B0
:104450000E94FD24D7FC05C0C114D10439F404FF27
:1044600005C0D194C194D1088DE201C08BE2B7019F
:1044700090E00E94FD2480E36AE0C616D1042CF08F
:104480008F5FFAE0CF1AD108F7CFB70190E00E9412
:10449000FD24B701C601C0960E94FD2441C18336A8
:1044A00031F0833779F0833509F058C021C05601C7
:1044B00072E0A70EB11CF6018081898301E010E053
:1044C000640114C05601F2E0AF0EB11CF601C080C9
:1044D000D18026FF03C0612F70E002C06FEF7FEF35
:1044E000C6012B8B0E94F2248C012B892F7715C0DB
:1044F0005601F2E0AF0EB11CF601C080D18026FF5C
:1045000003C0612F70E002C06FEF7FEFC6012B8BFD
:104510000E94DE248C012B892068722E23FD1AC094
:10452000852D90E008171907A8F4B70180E290E004
:104530000E94FD245A94F4CFF60177FC859177FE12
:1045400081916F01B70190E00E94FD2451105A94AF
:10455000015011090115110579F7E2C0843611F0F7
:10456000893651F5560127FF09C0F4E0AF0EB11CA2
:10457000F60160817181828193810AC0F2E0AF0E01
:10458000B11CF60160817181882777FD8095982F95
:10459000022F0F7697FF08C09095809570956195D2
:1045A0007F4F8F4F9F4F00682AE030E0A4010E94A8
:1045B0004B25C82EC8183EC0022F853721F40F7E28
:1045C0002AE030E01DC0097F8F3691F018F488355D
:1045D00059F0B0C0803719F0883711F0ABC00061D6
:1045E00004FF09C0046007C024FF08C0066006C0BD
:1045F00028E030E005C020E130E002C020E132E0F8
:10460000560107FF09C0F4E0AF0EB11CF60160814E
:1046100071818281938108C0F2E0AF0EB11CF60176
:104620006081718180E090E0A4010E944B25C82E3A
:10463000C8180F7706FF0BC0202F2E7FC11650F42D
:1046400004FF0AC002FD08C0202F2E7E05C0DC2C0E
:10465000202F03C0DC2C01C0D12E24FF0DC0FE0191
:10466000EC0DF11D8081803311F4297E09C022FFF9
:1046700006C0D394D39404C0822F867809F0D394D3
:1046800023FD13C020FF06C01C2DD51418F4150DF2
:104690001D19D52CD51468F4B70180E290E02B8B5E
:1046A0000E94FD24D3942B89F5CFD51410F45D1806
:1046B00001C0512C24FF12C0B70180E390E02B8B86
:1046C0000E94FD242B8922FF17C021FF03C088E52B
:1046D00090E002C088E790E0B7010CC0822F867896
:1046E00059F021FD02C080E201C08BE227FD8DE27E
:1046F000B70190E00E94FD24C11638F4B70180E3B1
:1047000090E00E94FD241150F7CFCA94F401EC0D03
:10471000F11D8081B70190E00E94FD24C110F5CF0A
:10472000552009F4C2CCB70180E290E00E94FD243C
:104730005A94F6CFF7018681978102C08FEF9FEFE1
:104740006396E2E10C94EE23A1E21A2EAA1BBB1B96
:10475000FD010DC0AA1FBB1FEE1FFF1FA217B3074D
:10476000E407F50720F0A21BB30BE40BF50B661F63
:10477000771F881F991F1A9469F760957095809527
:1047800090959B01AC01BD01CF010895A29FB0019E
:10479000B39FC001A39F700D811D1124911DB29F75
:1047A000700D811D1124911D08952F923F924F92FB
:1047B0005F926F927F928F929F92AF92BF92CF92B1
:1047C000DF92EF92FF920F931F93CF93DF93CDB7BA
:1047D000DEB7CA1BDB0BCDBFDEBF09942A88398840
:1047E00048885F846E847D848C849B84AA84B98489
:1047F000C884DF80EE80FD800C811B81AA81B98195
:10480000CE0FD11DCDBFDEBFED010895283008F0D9
:1048100027E03327DA01990F311D87FD916000965B
:104820006105710539F432602E5F3D9330E32A95BE
:10483000E1F708959F3F30F080387105610509F078
:104840003C5F3C5F3D93913008F08068911DDF93A1
:10485000CF931F930F93FF92EF92192F987F969506
:10486000E92F96959695E90FFF27EE5AF74F99276E
:104870003327EE24FF24A701E7010590089407944D
:1048800028F4360FE71EF81E491F511D660F771FCB
:10489000881F991F0694A1F70590079428F4E70E46
:1048A000F81E491F561FC11D770F881F991F661FCD
:1048B0000694A1F70590079428F4F80E491F561F97
:1048C000C71FD11D880F991F661F771F0694A1F778
:1048D0000590079420F4490F561FC71FD81F990F42
:1048E000661F771F881F0694A9F78491109517708B
:1048F00041F0D695C79557954795F794E7941A9543
:10490000C1F7E8EFF7E0689415901591359165913E
:10491000959105907FE27395E118F10A430B560BD0
:10492000C90BD009C0F7E10CF11E431F561FC91F68
:10493000D01D7EF4703311F48A95E6CFE8940150CF
:1049400030F0080F0AF40027021708F4202F2395EF
:10495000022F7A3328F079E37D932A95E9F710C086
:104960007D932A9589F606949795679537951795BF
:104970001794E118F10A430B560BC90BD00998F0B4
:1049800023957E9173957A3308F070E37C9320131E
:10499000B8F77E9170617D9330F0839571E37D93DC
:1049A00070E32A95E1F71124EF90FF900F911F918A
:1049B000CF91DF91992787FD90950895FC0105908F
:1049C000615070400110D8F7809590958E0F9F1F11
:1049D0000895FB01DC0102C001900D92415050404E
:1049E000D8F70895FC016150704001900110D8F78C
:1049F000809590958E0F9F1F08950F931F93CF93CF
:104A0000DF93182F092FEB018B8181FD03C08FEFFE
:104A10009FEF20C082FF10C04E815F812C813D81BD
:104A2000421753077CF4E881F9819F012F5F3F4FC4
:104A300028833983108306C0E885F985812F09957D
:104A4000892B29F72E813F812F5F3F4F2E833F8394
:104A5000812F902FDF91CF911F910F910895AEE09C
:104A6000B0E0E5E3F5E20C94E3238C018EE08C8367
:104A700009831A838FEF9FE78D839E83CE01019672
:104A80000E942920EF81F885E00FF11F10822E96F9
:104A9000E4E00C94FC23FA01AA27283051F12031DC
:104AA00081F1E8946F936E7F6E5F7F4F8F4F9F4FC2
:104AB000AF4FB1E03ED0B4E03CD0670F781F891F04
:104AC0009A1FA11D680F791F8A1F911DA11D6A0FD2
:104AD000711D811D911DA11D20D009F468943F9185
:104AE0002AE0269F11243019305D3193DEF6CF0184
:104AF0000895462F4770405D4193B3E00FD0C9F74A
:104B0000F6CF462F4F70405D4A3318F0495D31FDB6
:104B10004052419302D0A9F7EACFB4E0A695979509
:104B2000879577956795BA95C9F7009761057105DF
:104B300008959B01AC010A2E069457954795379529
:104B40002795BA95C9F7620F731F841F951FA01D83
:064B50000895F894FFCF68
:024B560001015B
:108000003BB748E10C941B403BB74AE10C941B4042
:10801000EE27FF2719BEDC0143E24093CA0150E47A
:108020002DE90D901D9020933400E89532965A95D5
:10803000C1F711240895FC014093CA012DE9209352
:0A8040003400E89511243BBF0895B9
:00000001FF
